{
  "contractName": "Supply",
  "abi": [
    {
      "inputs": [
        {
          "internalType": "uint256",
          "name": "",
          "type": "uint256"
        },
        {
          "internalType": "uint256",
          "name": "",
          "type": "uint256"
        }
      ],
      "name": "MobileIdToTrack",
      "outputs": [
        {
          "internalType": "uint256",
          "name": "PreviousOwnerId",
          "type": "uint256"
        },
        {
          "internalType": "uint256",
          "name": "NewOwnerId",
          "type": "uint256"
        },
        {
          "internalType": "string",
          "name": "NewOwnerType",
          "type": "string"
        },
        {
          "internalType": "string",
          "name": "PreviousOwnerType",
          "type": "string"
        }
      ],
      "stateMutability": "view",
      "type": "function",
      "constant": true
    },
    {
      "inputs": [],
      "name": "initialize",
      "outputs": [],
      "stateMutability": "nonpayable",
      "type": "function"
    },
    {
      "inputs": [
        {
          "internalType": "string",
          "name": "_ModelName",
          "type": "string"
        },
        {
          "internalType": "string",
          "name": "_ManufacturerName",
          "type": "string"
        },
        {
          "internalType": "string",
          "name": "_OwnerType",
          "type": "string"
        },
        {
          "internalType": "uint256",
          "name": "_OwnerId",
          "type": "uint256"
        },
        {
          "internalType": "uint256",
          "name": "_IMEINumber",
          "type": "uint256"
        }
      ],
      "name": "AddMobile",
      "outputs": [],
      "stateMutability": "nonpayable",
      "type": "function"
    },
    {
      "inputs": [
        {
          "internalType": "uint256",
          "name": "_IMEINumber",
          "type": "uint256"
        }
      ],
      "name": "GetIdOfMobile",
      "outputs": [
        {
          "internalType": "uint256",
          "name": "",
          "type": "uint256"
        }
      ],
      "stateMutability": "view",
      "type": "function",
      "constant": true
    },
    {
      "inputs": [
        {
          "internalType": "string",
          "name": "_ManufacturerName",
          "type": "string"
        },
        {
          "internalType": "string",
          "name": "_ManufacturerEmail",
          "type": "string"
        },
        {
          "internalType": "string",
          "name": "_ManufacturerPassword",
          "type": "string"
        }
      ],
      "name": "AddManufacturer",
      "outputs": [],
      "stateMutability": "nonpayable",
      "type": "function"
    },
    {
      "inputs": [],
      "name": "GetIdOfManufacturer",
      "outputs": [
        {
          "internalType": "uint256",
          "name": "",
          "type": "uint256"
        }
      ],
      "stateMutability": "view",
      "type": "function",
      "constant": true
    },
    {
      "inputs": [
        {
          "internalType": "string",
          "name": "_UserName",
          "type": "string"
        },
        {
          "internalType": "string",
          "name": "_UserEmail",
          "type": "string"
        },
        {
          "internalType": "string",
          "name": "_UserPassword",
          "type": "string"
        }
      ],
      "name": "AddUser",
      "outputs": [],
      "stateMutability": "nonpayable",
      "type": "function"
    },
    {
      "inputs": [],
      "name": "GetIdOfUser",
      "outputs": [
        {
          "internalType": "uint256",
          "name": "",
          "type": "uint256"
        }
      ],
      "stateMutability": "view",
      "type": "function",
      "constant": true
    },
    {
      "inputs": [
        {
          "internalType": "string",
          "name": "_Password",
          "type": "string"
        },
        {
          "internalType": "uint256",
          "name": "_id",
          "type": "uint256"
        },
        {
          "internalType": "string",
          "name": "_Usertype",
          "type": "string"
        }
      ],
      "name": "VerifyLogin",
      "outputs": [
        {
          "internalType": "bool",
          "name": "",
          "type": "bool"
        }
      ],
      "stateMutability": "view",
      "type": "function",
      "constant": true
    },
    {
      "inputs": [
        {
          "internalType": "uint256",
          "name": "_PreviousOwnerId",
          "type": "uint256"
        },
        {
          "internalType": "uint256",
          "name": "_NewOwnerId",
          "type": "uint256"
        },
        {
          "internalType": "string",
          "name": "_NewOwnerType",
          "type": "string"
        },
        {
          "internalType": "uint256",
          "name": "_MobileId",
          "type": "uint256"
        },
        {
          "internalType": "string",
          "name": "_PreviousOwnerType",
          "type": "string"
        }
      ],
      "name": "TransferOwnership",
      "outputs": [],
      "stateMutability": "nonpayable",
      "type": "function"
    },
    {
      "inputs": [
        {
          "internalType": "uint256",
          "name": "_MobileId",
          "type": "uint256"
        },
        {
          "internalType": "uint256",
          "name": "_OwnerNumber",
          "type": "uint256"
        }
      ],
      "name": "GetMobileOwnershipTracking",
      "outputs": [
        {
          "internalType": "uint256",
          "name": "",
          "type": "uint256"
        },
        {
          "internalType": "uint256",
          "name": "",
          "type": "uint256"
        },
        {
          "internalType": "string",
          "name": "",
          "type": "string"
        },
        {
          "internalType": "string",
          "name": "",
          "type": "string"
        }
      ],
      "stateMutability": "view",
      "type": "function",
      "constant": true
    },
    {
      "inputs": [
        {
          "internalType": "uint256",
          "name": "_MobileId",
          "type": "uint256"
        }
      ],
      "name": "GetLengthOfArray",
      "outputs": [
        {
          "internalType": "uint256",
          "name": "",
          "type": "uint256"
        }
      ],
      "stateMutability": "view",
      "type": "function",
      "constant": true
    },
    {
      "inputs": [
        {
          "internalType": "uint256",
          "name": "_ManufacturerId",
          "type": "uint256"
        }
      ],
      "name": "GetManufacturer",
      "outputs": [
        {
          "internalType": "string",
          "name": "",
          "type": "string"
        },
        {
          "internalType": "string",
          "name": "",
          "type": "string"
        },
        {
          "internalType": "uint256",
          "name": "",
          "type": "uint256"
        }
      ],
      "stateMutability": "view",
      "type": "function",
      "constant": true
    },
    {
      "inputs": [
        {
          "internalType": "uint256",
          "name": "_UserId",
          "type": "uint256"
        }
      ],
      "name": "GetUser",
      "outputs": [
        {
          "internalType": "string",
          "name": "",
          "type": "string"
        },
        {
          "internalType": "string",
          "name": "",
          "type": "string"
        },
        {
          "internalType": "uint256",
          "name": "",
          "type": "uint256"
        }
      ],
      "stateMutability": "view",
      "type": "function",
      "constant": true
    },
    {
      "inputs": [
        {
          "internalType": "uint256",
          "name": "_MobileId",
          "type": "uint256"
        }
      ],
      "name": "GetMobile",
      "outputs": [
        {
          "internalType": "string",
          "name": "",
          "type": "string"
        },
        {
          "internalType": "string",
          "name": "",
          "type": "string"
        },
        {
          "internalType": "string",
          "name": "",
          "type": "string"
        },
        {
          "internalType": "uint256",
          "name": "",
          "type": "uint256"
        },
        {
          "internalType": "uint256",
          "name": "",
          "type": "uint256"
        },
        {
          "internalType": "uint256",
          "name": "",
          "type": "uint256"
        }
      ],
      "stateMutability": "view",
      "type": "function",
      "constant": true
    },
    {
      "inputs": [],
      "name": "GetTotalMobile",
      "outputs": [
        {
          "internalType": "uint256",
          "name": "",
          "type": "uint256"
        }
      ],
      "stateMutability": "view",
      "type": "function",
      "constant": true
    },
    {
      "inputs": [],
      "name": "GetTotalUser",
      "outputs": [
        {
          "internalType": "uint256",
          "name": "",
          "type": "uint256"
        }
      ],
      "stateMutability": "view",
      "type": "function",
      "constant": true
    },
    {
      "inputs": [],
      "name": "GetTotalManufacturer",
      "outputs": [
        {
          "internalType": "uint256",
          "name": "",
          "type": "uint256"
        }
      ],
      "stateMutability": "view",
      "type": "function",
      "constant": true
    }
  ],
  "bytecode": "0x608060405234801561001057600080fd5b50612d96806100206000396000f3fe608060405234801561001057600080fd5b50600436106101165760003560e01c80636ff73ff7116100a2578063d5ddb8a511610071578063d5ddb8a514610be3578063df876f9b14610c01578063e0d3646114610dea578063ee859f2d14610e2c578063f401b31414610f9c57610116565b80636ff73ff71461097c5780638129fc1c14610b795780639cb59ff414610b83578063c3c18a9614610bc557610116565b80633e973db3116100e95780633e973db31461055657806340a4da351461057457806341b4e02e1461069f5780635cda7615146106bd5780636f90a261146107e857610116565b8063070f1d521461011b57806310a264241461023557806317dac8bb1461041e5780633269f6801461043c575b600080fd5b6101476004803603602081101561013157600080fd5b810190808035906020019092919050505061110e565b604051808060200180602001848152602001838103835286818151815260200191508051906020019080838360005b83811015610191578082015181840152602081019050610176565b50505050905090810190601f1680156101be5780820380516001836020036101000a031916815260200191505b50838103825285818151815260200191508051906020019080838360005b838110156101f75780820151818401526020810190506101dc565b50505050905090810190601f1680156102245780820380516001836020036101000a031916815260200191505b509550505050505060405180910390f35b61041c6004803603606081101561024b57600080fd5b810190808035906020019064010000000081111561026857600080fd5b82018360208201111561027a57600080fd5b8035906020019184600183028401116401000000008311171561029c57600080fd5b91908080601f016020809104026020016040519081016040528093929190818152602001838380828437600081840152601f19601f820116905080830192505050505050509192919290803590602001906401000000008111156102ff57600080fd5b82018360208201111561031157600080fd5b8035906020019184600183028401116401000000008311171561033357600080fd5b91908080601f016020809104026020016040519081016040528093929190818152602001838380828437600081840152601f19601f8201169050808301925050505050505091929192908035906020019064010000000081111561039657600080fd5b8201836020820111156103a857600080fd5b803590602001918460018302840111640100000000831117156103ca57600080fd5b91908080601f016020809104026020016040519081016040528093929190818152602001838380828437600081840152601f19601f8201169050808301925050505050505091929192905050506112e6565b005b610426611494565b6040518082815260200191505060405180910390f35b6104686004803603602081101561045257600080fd5b810190808035906020019092919050505061149e565b604051808060200180602001848152602001838103835286818151815260200191508051906020019080838360005b838110156104b2578082015181840152602081019050610497565b50505050905090810190601f1680156104df5780820380516001836020036101000a031916815260200191505b50838103825285818151815260200191508051906020019080838360005b838110156105185780820151818401526020810190506104fd565b50505050905090810190601f1680156105455780820380516001836020036101000a031916815260200191505b509550505050505060405180910390f35b61055e611676565b6040518082815260200191505060405180910390f35b6105aa6004803603604081101561058a57600080fd5b810190808035906020019092919080359060200190929190505050611680565b604051808581526020018481526020018060200180602001838103835285818151815260200191508051906020019080838360005b838110156105fa5780820151818401526020810190506105df565b50505050905090810190601f1680156106275780820380516001836020036101000a031916815260200191505b50838103825284818151815260200191508051906020019080838360005b83811015610660578082015181840152602081019050610645565b50505050905090810190601f16801561068d5780820380516001836020036101000a031916815260200191505b50965050505050505060405180910390f35b6106a76117fa565b6040518082815260200191505060405180910390f35b6106f3600480360360408110156106d357600080fd5b810190808035906020019092919080359060200190929190505050611804565b604051808581526020018481526020018060200180602001838103835285818151815260200191508051906020019080838360005b83811015610743578082015181840152602081019050610728565b50505050905090810190601f1680156107705780820380516001836020036101000a031916815260200191505b50838103825284818151815260200191508051906020019080838360005b838110156107a957808201518184015260208101905061078e565b50505050905090810190601f1680156107d65780820380516001836020036101000a031916815260200191505b50965050505050505060405180910390f35b610814600480360360208110156107fe57600080fd5b8101908080359060200190929190505050611a11565b6040518080602001806020018060200187815260200186815260200185815260200184810384528a818151815260200191508051906020019080838360005b8381101561086e578082015181840152602081019050610853565b50505050905090810190601f16801561089b5780820380516001836020036101000a031916815260200191505b50848103835289818151815260200191508051906020019080838360005b838110156108d45780820151818401526020810190506108b9565b50505050905090810190601f1680156109015780820380516001836020036101000a031916815260200191505b50848103825288818151815260200191508051906020019080838360005b8381101561093a57808201518184015260208101905061091f565b50505050905090810190601f1680156109675780820380516001836020036101000a031916815260200191505b50995050505050505050505060405180910390f35b610b77600480360360a081101561099257600080fd5b81019080803590602001906401000000008111156109af57600080fd5b8201836020820111156109c157600080fd5b803590602001918460018302840111640100000000831117156109e357600080fd5b91908080601f016020809104026020016040519081016040528093929190818152602001838380828437600081840152601f19601f82011690508083019250505050505050919291929080359060200190640100000000811115610a4657600080fd5b820183602082011115610a5857600080fd5b80359060200191846001830284011164010000000083111715610a7a57600080fd5b91908080601f016020809104026020016040519081016040528093929190818152602001838380828437600081840152601f19601f82011690508083019250505050505050919291929080359060200190640100000000811115610add57600080fd5b820183602082011115610aef57600080fd5b80359060200191846001830284011164010000000083111715610b1157600080fd5b91908080601f016020809104026020016040519081016040528093929190818152602001838380828437600081840152601f19601f8201169050808301925050505050505091929192908035906020019092919080359060200190929190505050611d21565b005b610b81611f3d565b005b610baf60048036036020811015610b9957600080fd5b810190808035906020019092919050505061207e565b6040518082815260200191505060405180910390f35b610bcd61209e565b6040518082815260200191505060405180910390f35b610beb6120a8565b6040518082815260200191505060405180910390f35b610de860048036036060811015610c1757600080fd5b8101908080359060200190640100000000811115610c3457600080fd5b820183602082011115610c4657600080fd5b80359060200191846001830284011164010000000083111715610c6857600080fd5b91908080601f016020809104026020016040519081016040528093929190818152602001838380828437600081840152601f19601f82011690508083019250505050505050919291929080359060200190640100000000811115610ccb57600080fd5b820183602082011115610cdd57600080fd5b80359060200191846001830284011164010000000083111715610cff57600080fd5b91908080601f016020809104026020016040519081016040528093929190818152602001838380828437600081840152601f19601f82011690508083019250505050505050919291929080359060200190640100000000811115610d6257600080fd5b820183602082011115610d7457600080fd5b80359060200191846001830284011164010000000083111715610d9657600080fd5b91908080601f016020809104026020016040519081016040528093929190818152602001838380828437600081840152601f19601f8201169050808301925050505050505091929192905050506120b2565b005b610e1660048036036020811015610e0057600080fd5b8101908080359060200190929190505050612260565b6040518082815260200191505060405180910390f35b610f9a600480360360a0811015610e4257600080fd5b81019080803590602001909291908035906020019092919080359060200190640100000000811115610e7357600080fd5b820183602082011115610e8557600080fd5b80359060200191846001830284011164010000000083111715610ea757600080fd5b91908080601f016020809104026020016040519081016040528093929190818152602001838380828437600081840152601f19601f8201169050808301925050505050505091929192908035906020019092919080359060200190640100000000811115610f1457600080fd5b820183602082011115610f2657600080fd5b80359060200191846001830284011164010000000083111715610f4857600080fd5b91908080601f016020809104026020016040519081016040528093929190818152602001838380828437600081840152601f19601f82011690508083019250505050505050919291929050505061227d565b005b6110f660048036036060811015610fb257600080fd5b8101908080359060200190640100000000811115610fcf57600080fd5b820183602082011115610fe157600080fd5b8035906020019184600183028401116401000000008311171561100357600080fd5b91908080601f016020809104026020016040519081016040528093929190818152602001838380828437600081840152601f19601f820116905080830192505050505050509192919290803590602001909291908035906020019064010000000081111561107057600080fd5b82018360208201111561108257600080fd5b803590602001918460018302840111640100000000831117156110a457600080fd5b91908080601f016020809104026020016040519081016040528093929190818152602001838380828437600081840152601f19601f820116905080830192505050505050509192919290505050612331565b60405180821515815260200191505060405180910390f35b6060806000603d6000858152602001908152602001600020848154811061113157fe5b9060005260206000209060050201600001603d6000868152602001908152602001600020858154811061116057fe5b9060005260206000209060050201600101603d6000878152602001908152602001600020868154811061118f57fe5b906000526020600020906005020160030154828054600181600116156101000203166002900480601f0160208091040260200160405190810160405280929190818152602001828054600181600116156101000203166002900480156112365780601f1061120b57610100808354040283529160200191611236565b820191906000526020600020905b81548152906001019060200180831161121957829003601f168201915b50505050509250818054600181600116156101000203166002900480601f0160208091040260200160405190810160405280929190818152602001828054600181600116156101000203166002900480156112d25780601f106112a7576101008083540402835291602001916112d2565b820191906000526020600020905b8154815290600101906020018083116112b557829003601f168201915b505050505091509250925092509193909250565b60346040518060a00160405280858152602001848152602001838152602001603f5481526020013373ffffffffffffffffffffffffffffffffffffffff168152509080600181540180825580915050600190039060005260206000209060050201600090919091909150600082015181600001908051906020019061136c92919061270b565b50602082015181600101908051906020019061138992919061270b565b5060408201518160020190805190602001906113a692919061270b565b506060820151816003015560808201518160040160006101000a81548173ffffffffffffffffffffffffffffffffffffffff021916908373ffffffffffffffffffffffffffffffffffffffff1602179055505050603f546041819055506034603c6000603f54815260200190815260200160002090805461142892919061278b565b503360366000603f54815260200190815260200160002060006101000a81548173ffffffffffffffffffffffffffffffffffffffff021916908373ffffffffffffffffffffffffffffffffffffffff160217905550603f60008154809291906001019190505550505050565b6000603f54905090565b6060806000603c600085815260200190815260200160002084815481106114c157fe5b9060005260206000209060050201600001603c600086815260200190815260200160002085815481106114f057fe5b9060005260206000209060050201600101603c6000878152602001908152602001600020868154811061151f57fe5b906000526020600020906005020160030154828054600181600116156101000203166002900480601f0160208091040260200160405190810160405280929190818152602001828054600181600116156101000203166002900480156115c65780601f1061159b576101008083540402835291602001916115c6565b820191906000526020600020905b8154815290600101906020018083116115a957829003601f168201915b50505050509250818054600181600116156101000203166002900480601f0160208091040260200160405190810160405280929190818152602001828054600181600116156101000203166002900480156116625780601f1061163757610100808354040283529160200191611662565b820191906000526020600020905b81548152906001019060200180831161164557829003601f168201915b505050505091509250925092509193909250565b6000604254905090565b603a602052816000526040600020818154811061169957fe5b906000526020600020906004020160009150915050806000015490806001015490806002018054600181600116156101000203166002900480601f0160208091040260200160405190810160405280929190818152602001828054600181600116156101000203166002900480156117525780601f1061172757610100808354040283529160200191611752565b820191906000526020600020905b81548152906001019060200180831161173557829003601f168201915b505050505090806003018054600181600116156101000203166002900480601f0160208091040260200160405190810160405280929190818152602001828054600181600116156101000203166002900480156117f05780601f106117c5576101008083540402835291602001916117f0565b820191906000526020600020905b8154815290600101906020018083116117d357829003601f168201915b5050505050905084565b6000604154905090565b600080606080603a6000878152602001908152602001600020858154811061182857fe5b906000526020600020906004020160000154603a6000888152602001908152602001600020868154811061185857fe5b906000526020600020906004020160010154603a6000898152602001908152602001600020878154811061188857fe5b9060005260206000209060040201600201603a60008a815260200190815260200160002088815481106118b757fe5b9060005260206000209060040201600301818054600181600116156101000203166002900480601f01602080910402602001604051908101604052809291908181526020018280546001816001161561010002031660029004801561195d5780601f106119325761010080835404028352916020019161195d565b820191906000526020600020905b81548152906001019060200180831161194057829003601f168201915b50505050509150808054600181600116156101000203166002900480601f0160208091040260200160405190810160405280929190818152602001828054600181600116156101000203166002900480156119f95780601f106119ce576101008083540402835291602001916119f9565b820191906000526020600020905b8154815290600101906020018083116119dc57829003601f168201915b50505050509050935093509350935092959194509250565b60608060606000806000603b60008881526020019081526020016000208781548110611a3957fe5b9060005260206000209060060201600001603b60008981526020019081526020016000208881548110611a6857fe5b9060005260206000209060060201600101603b60008a81526020019081526020016000208981548110611a9757fe5b9060005260206000209060060201600201603b60008b81526020019081526020016000208a81548110611ac657fe5b906000526020600020906006020160030154603b60008c81526020019081526020016000208b81548110611af657fe5b906000526020600020906006020160040154603b60008d81526020019081526020016000208c81548110611b2657fe5b906000526020600020906006020160050154858054600181600116156101000203166002900480601f016020809104026020016040519081016040528092919081815260200182805460018160011615610100020316600290048015611bcd5780601f10611ba257610100808354040283529160200191611bcd565b820191906000526020600020905b815481529060010190602001808311611bb057829003601f168201915b50505050509550848054600181600116156101000203166002900480601f016020809104026020016040519081016040528092919081815260200182805460018160011615610100020316600290048015611c695780601f10611c3e57610100808354040283529160200191611c69565b820191906000526020600020905b815481529060010190602001808311611c4c57829003601f168201915b50505050509450838054600181600116156101000203166002900480601f016020809104026020016040519081016040528092919081815260200182805460018160011615610100020316600290048015611d055780601f10611cda57610100808354040283529160200191611d05565b820191906000526020600020905b815481529060010190602001808311611ce857829003601f168201915b5050505050935095509550955095509550955091939550919395565b3373ffffffffffffffffffffffffffffffffffffffff166036600084815260200190815260200160002060009054906101000a900473ffffffffffffffffffffffffffffffffffffffff1673ffffffffffffffffffffffffffffffffffffffff1614611df5576040517f08c379a000000000000000000000000000000000000000000000000000000000815260040180806020018281038252601a8152602001807f596f7520617265206e6f742061204d616e75666163747572657200000000000081525060200191505060405180910390fd5b60336040518060c00160405280878152602001868152602001858152602001848152602001603e5481526020018381525090806001815401808255809150506001900390600052602060002090600602016000909190919091506000820151816000019080519060200190611e6b92919061270b565b506020820151816001019080519060200190611e8892919061270b565b506040820151816002019080519060200190611ea592919061270b565b50606082015181600301556080820151816004015560a0820151816005015550506033603b6000603e548152602001908152602001600020908054611eeb9291906128cc565b506033603e5481548110611efb57fe5b9060005260206000209060060201600401546038600083815260200190815260200160002081905550603e600081548092919060010191905055505050505050565b600060019054906101000a900460ff1680611f5c5750611f5b6126f4565b5b80611f72575060008054906101000a900460ff16155b611fc7576040517f08c379a000000000000000000000000000000000000000000000000000000000815260040180806020018281038252602e815260200180612d33602e913960400191505060405180910390fd5b60008060019054906101000a900460ff161590508015612017576001600060016101000a81548160ff02191690831515021790555060016000806101000a81548160ff0219169083151502179055505b6000603e819055506000603f819055506000604081905550600060418190555060006042819055506001604360006101000a81548160ff021916908315150217905550801561207b5760008060016101000a81548160ff0219169083151502179055505b50565b6000603a6000838152602001908152602001600020805490509050919050565b6000603e54905090565b6000604054905090565b60356040518060a0016040528085815260200184815260200183815260200160405481526020013373ffffffffffffffffffffffffffffffffffffffff168152509080600181540180825580915050600190039060005260206000209060050201600090919091909150600082015181600001908051906020019061213892919061270b565b50602082015181600101908051906020019061215592919061270b565b50604082015181600201908051906020019061217292919061270b565b506060820151816003015560808201518160040160006101000a81548173ffffffffffffffffffffffffffffffffffffffff021916908373ffffffffffffffffffffffffffffffffffffffff16021790555050506040546042819055506035603d600060405481526020019081526020016000209080546121f49291906129ba565b503360376000604054815260200190815260200160002060006101000a81548173ffffffffffffffffffffffffffffffffffffffff021916908373ffffffffffffffffffffffffffffffffffffffff160217905550604060008154809291906001019190505550505050565b600060386000838152602001908152602001600020549050919050565b603a600083815260200190815260200160002060405180608001604052808781526020018681526020018581526020018381525090806001815401808255809150506001900390600052602060002090600402016000909190919091506000820151816000015560208201518160010155604082015181600201908051906020019061230a92919061270b565b50606082015181600301908051906020019061232792919061270b565b5050505050505050565b600060405160200180807f4d616e7566616374757265720000000000000000000000000000000000000000815250600c01905060405160208183030381529060405280519060200120826040516020018082805190602001908083835b602083106123b1578051825260208201915060208101905060208303925061238e565b6001836020036101000a03801982511681845116808217855250505050505090500191505060405160208183030381529060405280519060200120141561250f57603483815481106123ff57fe5b9060005260206000209060050201600201604051602001808280546001816001161561010002031660029004801561246e5780601f1061244c57610100808354040283529182019161246e565b820191906000526020600020905b81548152906001019060200180831161245a575b505091505060405160208183030381529060405280519060200120846040516020018082805190602001908083835b602083106124c0578051825260208201915060208101905060208303925061249d565b6001836020036101000a03801982511681845116808217855250505050505090500191505060405160208183030381529060405280519060200120141561250a57600190506126ed565b6126e8565b60405160200180807f5573657200000000000000000000000000000000000000000000000000000000815250600401905060405160208183030381529060405280519060200120826040516020018082805190602001908083835b6020831061258d578051825260208201915060208101905060208303925061256a565b6001836020036101000a0380198251168184511680821785525050505050509050019150506040516020818303038152906040528051906020012014156126e757603583815481106125db57fe5b9060005260206000209060050201600201604051602001808280546001816001161561010002031660029004801561264a5780601f1061262857610100808354040283529182019161264a565b820191906000526020600020905b815481529060010190602001808311612636575b505091505060405160208183030381529060405280519060200120846040516020018082805190602001908083835b6020831061269c5780518252602082019150602081019050602083039250612679565b6001836020036101000a0380198251168184511680821785525050505050509050019150506040516020818303038152906040528051906020012014156126e657600190506126ed565b5b5b600090505b9392505050565b6000803090506000813b9050600081149250505090565b828054600181600116156101000203166002900490600052602060002090601f016020900481019282601f1061274c57805160ff191683800117855561277a565b8280016001018555821561277a579182015b8281111561277957825182559160200191906001019061275e565b5b5090506127879190612afb565b5090565b8280548282559060005260206000209060050281019282156128bb5760005260206000209160050282015b828111156128ba578282600082018160000190805460018160011615610100020316600290046127e7929190612b18565b506001820181600101908054600181600116156101000203166002900461280f929190612b18565b5060028201816002019080546001816001161561010002031660029004612837929190612b18565b50600382015481600301556004820160009054906101000a900473ffffffffffffffffffffffffffffffffffffffff168160040160006101000a81548173ffffffffffffffffffffffffffffffffffffffff021916908373ffffffffffffffffffffffffffffffffffffffff1602179055505050916005019190600501906127b6565b5b5090506128c89190612b9f565b5090565b8280548282559060005260206000209060060281019282156129a95760005260206000209160060282015b828111156129a857828260008201816000019080546001816001161561010002031660029004612928929190612b18565b5060018201816001019080546001816001161561010002031660029004612950929190612b18565b5060028201816002019080546001816001161561010002031660029004612978929190612b18565b506003820154816003015560048201548160040155600582015481600501555050916006019190600601906128f7565b5b5090506129b69190612c15565b5090565b828054828255906000526020600020906005028101928215612aea5760005260206000209160050282015b82811115612ae957828260008201816000019080546001816001161561010002031660029004612a16929190612b18565b5060018201816001019080546001816001161561010002031660029004612a3e929190612b18565b5060028201816002019080546001816001161561010002031660029004612a66929190612b18565b50600382015481600301556004820160009054906101000a900473ffffffffffffffffffffffffffffffffffffffff168160040160006101000a81548173ffffffffffffffffffffffffffffffffffffffff021916908373ffffffffffffffffffffffffffffffffffffffff1602179055505050916005019190600501906129e5565b5b509050612af79190612c74565b5090565b5b80821115612b14576000816000905550600101612afc565b5090565b828054600181600116156101000203166002900490600052602060002090601f016020900481019282601f10612b515780548555612b8e565b82800160010185558215612b8e57600052602060002091601f016020900482015b82811115612b8d578254825591600101919060010190612b72565b5b509050612b9b9190612afb565b5090565b5b80821115612c115760008082016000612bb99190612cea565b600182016000612bc99190612cea565b600282016000612bd99190612cea565b60038201600090556004820160006101000a81549073ffffffffffffffffffffffffffffffffffffffff021916905550600501612ba0565b5090565b5b80821115612c705760008082016000612c2f9190612cea565b600182016000612c3f9190612cea565b600282016000612c4f9190612cea565b60038201600090556004820160009055600582016000905550600601612c16565b5090565b5b80821115612ce65760008082016000612c8e9190612cea565b600182016000612c9e9190612cea565b600282016000612cae9190612cea565b60038201600090556004820160006101000a81549073ffffffffffffffffffffffffffffffffffffffff021916905550600501612c75565b5090565b50805460018160011615610100020316600290046000825580601f10612d105750612d2f565b601f016020900490600052602060002090810190612d2e9190612afb565b5b5056fe436f6e747261637420696e7374616e63652068617320616c7265616479206265656e20696e697469616c697a6564a264697066735822122067aa2428de60f52a3cb4fa810e5df83ed31ba82b3ee9966010a962756e1d7e3164736f6c634300060c0033",
  "immutableReferences": {},
  "source": "// SPDX-License-Identifier: MIT\r\n\r\npragma solidity ^0.6.12;\r\n\r\nimport \"../node_modules/@openzeppelin/upgrades-core/contracts/Initializable.sol\";\r\n\r\ncontract Supply is Initializable {\r\n    //To store details about each Mobile\r\n    struct Mobile {\r\n        string ModelName;\r\n        string ManufacturerName;\r\n        string OwnerType;\r\n        uint256 OwnerId;\r\n        uint256 MobileId;\r\n        uint256 IMEINumber;\r\n    }\r\n    Mobile[] mobile;\r\n\r\n    //To store details about each Manufacturer\r\n    struct Manufacturer {\r\n        string ManufacturerName;\r\n        string ManufacturerEmail;\r\n        string ManufacturerPassword;\r\n        uint256 ManufacturerId;\r\n        address ManufacturerAddress;\r\n    }\r\n    Manufacturer[] manufacturer;\r\n\r\n    //To store details about each User\r\n    struct User {\r\n        string UserName;\r\n        string UserEmail;\r\n        string UserPassword;\r\n        uint256 UserId;\r\n        address UserAddress;\r\n    }\r\n    User[] user;\r\n\r\n    //To track the ownership of Mobiles\r\n    struct Track {\r\n        uint256 PreviousOwnerId;\r\n        uint256 NewOwnerId;\r\n        string NewOwnerType;\r\n        string PreviousOwnerType;\r\n    }\r\n\r\n    //Keeps track of Ids of all manufacturers\r\n    mapping(uint256 => address) ManufacturerIdToAddress;\r\n\r\n    //Keeps track of Ids of all users\r\n    mapping(uint256 => address) UserIdToAddress;\r\n\r\n    //Keeps track of Ids of mobile using IMEI number\r\n    mapping(uint256 => uint256) IMEIToMobileId;\r\n\r\n    //To track an individual mobile\r\n    Track[] track;\r\n    mapping(uint256 => Track[]) public MobileIdToTrack;\r\n\r\n    //Mapping for MobileId to Mobile data\r\n    mapping(uint256 => Mobile[]) MobileIdToMobile;\r\n\r\n    //Mapping for ManufacturerId to Manufacturer data\r\n    mapping(uint256 => Manufacturer[]) ManufacturerIdToManufacturer;\r\n\r\n    //Mapping for UserId to User data\r\n    mapping(uint256 => User[]) UserIdToUser;\r\n\r\n    //Variables for creaating Id\r\n    uint256 MobileId;\r\n    uint256 ManufacturerId;\r\n    uint256 UserId;\r\n    uint256 RetrieveManufacturerId;\r\n    uint256 RetrieveUserId;\r\n    bool login;\r\n\r\n    //Initializing variables\r\n    function initialize() public initializer {\r\n        MobileId = 0;\r\n        ManufacturerId = 0;\r\n        UserId = 0;\r\n        RetrieveManufacturerId = 0;\r\n        RetrieveUserId = 0;\r\n        login = true;\r\n    }\r\n\r\n    //Modifier to check whether a manufacturer\r\n    // modifier OnlyManufacturer(uint256 _ManufacturerId) {\r\n    //     require(msg.sender == ManufacturerAddresses[_ManufacturerId]);\r\n    //     _;\r\n    // }\r\n\r\n    // //Modifier to check whether a user\r\n    // modifier OnlyUser(uint256 _UserId) {\r\n    //     require(msg.sender == UserAddresses[_UserId]);\r\n    //     _;\r\n    // }\r\n\r\n    //Funtion to add Mobiles\r\n    function AddMobile(\r\n        string memory _ModelName,\r\n        string memory _ManufacturerName,\r\n        string memory _OwnerType,\r\n        uint256 _OwnerId,\r\n        uint256 _IMEINumber\r\n    ) public {\r\n        require(\r\n            ManufacturerIdToAddress[_OwnerId] == msg.sender,\r\n            \"You are not a Manufacturer\"\r\n        );\r\n        mobile.push(\r\n            Mobile(\r\n                _ModelName,\r\n                _ManufacturerName,\r\n                _OwnerType,\r\n                _OwnerId,\r\n                MobileId,\r\n                _IMEINumber\r\n            )\r\n        );\r\n        MobileIdToMobile[MobileId] = mobile;\r\n        IMEIToMobileId[_IMEINumber] = mobile[MobileId].MobileId;\r\n        MobileId++;\r\n    }\r\n\r\n    //Function to get id of mobile using IMEI number\r\n    function GetIdOfMobile(uint256 _IMEINumber) public view returns (uint256) {\r\n        return IMEIToMobileId[_IMEINumber];\r\n    }\r\n\r\n    //Funtion to add Manufacturer\r\n    function AddManufacturer(\r\n        string memory _ManufacturerName,\r\n        string memory _ManufacturerEmail,\r\n        string memory _ManufacturerPassword\r\n    ) public {\r\n        manufacturer.push(\r\n            Manufacturer(\r\n                _ManufacturerName,\r\n                _ManufacturerEmail,\r\n                _ManufacturerPassword,\r\n                ManufacturerId,\r\n                msg.sender\r\n            )\r\n        );\r\n        RetrieveManufacturerId = ManufacturerId;\r\n        ManufacturerIdToManufacturer[ManufacturerId] = manufacturer;\r\n        ManufacturerIdToAddress[ManufacturerId] = msg.sender;\r\n        ManufacturerId++;\r\n    }\r\n\r\n    //Function to get id of manufacturer using address\r\n    function GetIdOfManufacturer() public view returns (uint256) {\r\n        return RetrieveManufacturerId;\r\n    }\r\n\r\n    //Funtion to add User\r\n    function AddUser(\r\n        string memory _UserName,\r\n        string memory _UserEmail,\r\n        string memory _UserPassword\r\n    ) public {\r\n        user.push(\r\n            User(_UserName, _UserEmail, _UserPassword, UserId, msg.sender)\r\n        );\r\n        RetrieveUserId = UserId;\r\n        UserIdToUser[UserId] = user;\r\n        UserIdToAddress[UserId] = msg.sender;\r\n        UserId++;\r\n    }\r\n\r\n    //Function to get id of manufacturer using address\r\n    function GetIdOfUser() public view returns (uint256) {\r\n        return RetrieveUserId;\r\n    }\r\n\r\n    //Funtion to verify login credentials\r\n    function VerifyLogin(\r\n        string memory _Password,\r\n        uint256 _id,\r\n        string memory _Usertype\r\n    ) public view returns (bool) {\r\n        if (\r\n            keccak256(abi.encodePacked((_Usertype))) ==\r\n            keccak256(abi.encodePacked((\"Manufacturer\")))\r\n        ) {\r\n            if (\r\n                keccak256(abi.encodePacked((_Password))) ==\r\n                keccak256(\r\n                    abi.encodePacked((manufacturer[_id].ManufacturerPassword))\r\n                )\r\n            ) {\r\n                return true;\r\n            }\r\n        } else if (\r\n            keccak256(abi.encodePacked((_Usertype))) ==\r\n            keccak256(abi.encodePacked((\"User\")))\r\n        ) {\r\n            if (\r\n                keccak256(abi.encodePacked((_Password))) ==\r\n                keccak256(abi.encodePacked((user[_id].UserPassword)))\r\n            ) {\r\n                return true;\r\n            }\r\n        }\r\n\r\n        return false;\r\n    }\r\n\r\n    //Funtion to transfer ownership from one user to another or from manufacturer to user\r\n    function TransferOwnership(\r\n        uint256 _PreviousOwnerId,\r\n        uint256 _NewOwnerId,\r\n        string memory _NewOwnerType,\r\n        uint256 _MobileId,\r\n        string memory _PreviousOwnerType\r\n    ) public {\r\n        MobileIdToTrack[_MobileId].push(\r\n            Track(\r\n                _PreviousOwnerId,\r\n                _NewOwnerId,\r\n                _NewOwnerType,\r\n                _PreviousOwnerType\r\n            )\r\n        );\r\n    }\r\n\r\n    //Get the mobile owners\r\n    function GetMobileOwnershipTracking(uint256 _MobileId, uint256 _OwnerNumber)\r\n        public\r\n        view\r\n        returns (\r\n            uint256,\r\n            uint256,\r\n            string memory,\r\n            string memory\r\n        )\r\n    {\r\n        return (\r\n            MobileIdToTrack[_MobileId][_OwnerNumber].PreviousOwnerId,\r\n            MobileIdToTrack[_MobileId][_OwnerNumber].NewOwnerId,\r\n            MobileIdToTrack[_MobileId][_OwnerNumber].NewOwnerType,\r\n            MobileIdToTrack[_MobileId][_OwnerNumber].PreviousOwnerType\r\n        );\r\n    }\r\n\r\n    //Get length of array\r\n    function GetLengthOfArray(uint256 _MobileId) public view returns(uint256) {\r\n        return MobileIdToTrack[_MobileId].length;\r\n    }\r\n\r\n    //Get Manufacturer details using Id\r\n    function GetManufacturer(uint256 _ManufacturerId)\r\n        public\r\n        view\r\n        returns (\r\n            string memory,\r\n            string memory,\r\n            uint256\r\n        )\r\n    {\r\n        return (\r\n            ManufacturerIdToManufacturer[_ManufacturerId][_ManufacturerId]\r\n                .ManufacturerName,\r\n            ManufacturerIdToManufacturer[_ManufacturerId][_ManufacturerId]\r\n                .ManufacturerEmail,\r\n            ManufacturerIdToManufacturer[_ManufacturerId][_ManufacturerId]\r\n                .ManufacturerId\r\n        );\r\n    }\r\n\r\n    //Get User details using Id\r\n    function GetUser(uint256 _UserId)\r\n        public\r\n        view\r\n        returns (\r\n            string memory,\r\n            string memory,\r\n            uint256\r\n        )\r\n    {\r\n        return (\r\n            UserIdToUser[_UserId][_UserId].UserName,\r\n            UserIdToUser[_UserId][_UserId].UserEmail,\r\n            UserIdToUser[_UserId][_UserId].UserId\r\n        );\r\n    }\r\n\r\n    //Get Mobile details using Id\r\n    function GetMobile(uint256 _MobileId)\r\n        public\r\n        view\r\n        returns (\r\n            string memory,\r\n            string memory,\r\n            string memory,\r\n            uint256,\r\n            uint256,\r\n            uint256\r\n        )\r\n    {\r\n        return (\r\n            MobileIdToMobile[_MobileId][_MobileId].ModelName,\r\n            MobileIdToMobile[_MobileId][_MobileId].ManufacturerName,\r\n            MobileIdToMobile[_MobileId][_MobileId].OwnerType,\r\n            MobileIdToMobile[_MobileId][_MobileId].OwnerId,\r\n            MobileIdToMobile[_MobileId][_MobileId].MobileId,\r\n            MobileIdToMobile[_MobileId][_MobileId].IMEINumber\r\n        );\r\n    }\r\n\r\n    function GetTotalMobile() public view returns (uint256) {\r\n        return MobileId;\r\n    }\r\n\r\n    function GetTotalUser() public view returns (uint256) {\r\n        return UserId;\r\n    }\r\n\r\n    function GetTotalManufacturer() public view returns (uint256) {\r\n        return ManufacturerId;\r\n    }\r\n}\r\n",
  "sourcePath": "D:\\web3.py\\supplychainmanagement\\contracts\\SupplyChainManagement.sol",
  "compiler": {
    "name": "solc",
    "version": "0.6.12+commit.27d51765.Emscripten.clang"
  },
  "schemaVersion": "3.4.4",
  "updatedAt": "2022-01-22T06:50:14.654Z",
  "networkType": "ethereum",
  "devdoc": {
    "kind": "dev",
    "methods": {},
    "version": 1
  },
  "userdoc": {
    "kind": "user",
    "methods": {},
    "version": 1
  }
}